:03000000020104F6
:0C010400787FE4F6D8FD7581140200033A
:10000300750BCD750ACC75092C750846E4F50FF50B
:100013000E750D40750C40751006F58E758F0375C2
:100023008922758CFB758AFBF58DF58BD2A9D2AF2E
:10003300D2ACD28CD28E12006E1200B11200E5AF98
:060043001012009180F98B
:080110008F993099FDC299227C
:100049008B128A138914AB12AA13A9141200CC605B
:10005900130514E5147002051314F91200CCFF12EC
:05006900011080E222FD
:1000B100759850438780438E40538EFE53890F437A
:0B00C1008920758BFD758DFDC2AB2200
:1000E500759D02E4F5BD75BCE053A2FB0000000060
:0100F50022E8
:0E00F600EF440842BCE5BC30E4FB53BCEF22F3
:100091008F117F211201107F0A120110AF1112007E
:1000A100F6AFBD120110AFBE1201107F0A0201109E
:10006E0075D904E4F5D8F5E9F5F975EAB275FAB281
:10007E00F5F275DA7375EB8075FB80F5F375DB427F
:03008E00D2DE229D
:1000CC00BB010689828A83E0225002E722BBFE0232
:0900DC00E32289828A83E4932265
:00000001FF
