:03000000020106F4
:0C010600787FE4F6D8FD75811402000338
:10000300750BCD750ACC75092C750846E4F50FF50B
:100013000E750D40750C40751006F58E758F0375C2
:100023008922758CFB758AFBF58DF58BD2A9D2AF2E
:10003300D2ACD28CD28E12006E1200B11200E7AF96
:060043001012009180F98B
:080112008F993099FDC299227A
:100049008B128A138914AB12AA13A9141200CE6059
:10005900130514E5147002051314F91200CEFF12EA
:05006900011280E222FB
:1000B100438780759850438E40538EFE53890F437A
:0D00C1008920758BFD758DFDC2ABD28E229E
:1000E700759D02E4F5BD75BCE053A2FB000000005E
:0100F70022E6
:0E00F800EF440842BCE5BC30E4FB53BCEF22F1
:100091008F117F211201127F0A120112AF1112007A
:1000A100F8AFBD120112AFBE1201127F7E02011222
:10006E0075D904E4F5D8F5E9F5F975EAB275FAB281
:10007E00F5F275DA7375EB8075FB80F5F375DB427F
:03008E00D2DE229D
:1000CE00BB010689828A83E0225002E722BBFE0230
:0900DE00E32289828A83E4932263
:00000001FF
